:0E00000075800075900075A0FFC2F0750100BC
:0E000E00750201750300020017E50223F502DA
:10001C0002001FE501B4000302002C150102002CA4
:10002C00E501B4000EE5A075A0FFB4FE0675010352
:0E003C0002003F758000E501B4000975904098
:0F004A0075800602006EB4010302005CB4030C63
:0F00590002005C75904075800C02006E7590403F
:1000680075801802006EE501B40014E502B440037F
:0F0078000200A3758002E502D2E6F59002009324
:0F008700758000850290758002020093758000DD
:100096007590FF75800102009F05030117758000AA
:1000A6007590000200ACE50375F06484F9ACF0ECE1
:1000B60075F00A84FAABF09000F2E993FD9000F235
:0F00C600EA93FE9000F2EB93FF0200D2758000E8
:1000D5008DB07580040200DD7580008EB0758002DC
:1000E5000200E87580008FB075800180E0FC60DA61
:0700F500F266B6BEE0FEF664
:00000001FF
